{
  "_format": "hh-sol-artifact-1",
  "contractName": "StunningPotato",
  "sourceName": "contracts/StunningPotato.sol",
  "abi": [
    {
      "inputs": [],
      "stateMutability": "nonpayable",
      "type": "constructor"
    },
    {
      "anonymous": false,
      "inputs": [
        {
          "indexed": true,
          "internalType": "address",
          "name": "owner",
          "type": "address"
        },
        {
          "indexed": true,
          "internalType": "address",
          "name": "approved",
          "type": "address"
        },
        {
          "indexed": true,
          "internalType": "uint256",
          "name": "tokenId",
          "type": "uint256"
        }
      ],
      "name": "Approval",
      "type": "event"
    },
    {
      "anonymous": false,
      "inputs": [
        {
          "indexed": true,
          "internalType": "address",
          "name": "owner",
          "type": "address"
        },
        {
          "indexed": true,
          "internalType": "address",
          "name": "operator",
          "type": "address"
        },
        {
          "indexed": false,
          "internalType": "bool",
          "name": "approved",
          "type": "bool"
        }
      ],
      "name": "ApprovalForAll",
      "type": "event"
    },
    {
      "anonymous": false,
      "inputs": [
        {
          "indexed": true,
          "internalType": "address",
          "name": "previousOwner",
          "type": "address"
        },
        {
          "indexed": true,
          "internalType": "address",
          "name": "newOwner",
          "type": "address"
        }
      ],
      "name": "OwnershipTransferred",
      "type": "event"
    },
    {
      "anonymous": false,
      "inputs": [
        {
          "indexed": false,
          "internalType": "address",
          "name": "account",
          "type": "address"
        }
      ],
      "name": "Paused",
      "type": "event"
    },
    {
      "anonymous": false,
      "inputs": [
        {
          "indexed": true,
          "internalType": "address",
          "name": "from",
          "type": "address"
        },
        {
          "indexed": true,
          "internalType": "address",
          "name": "to",
          "type": "address"
        },
        {
          "indexed": true,
          "internalType": "uint256",
          "name": "tokenId",
          "type": "uint256"
        }
      ],
      "name": "Transfer",
      "type": "event"
    },
    {
      "anonymous": false,
      "inputs": [
        {
          "indexed": false,
          "internalType": "address",
          "name": "account",
          "type": "address"
        }
      ],
      "name": "Unpaused",
      "type": "event"
    },
    {
      "inputs": [],
      "name": "PRICE_ANIMATION",
      "outputs": [
        {
          "internalType": "uint256",
          "name": "",
          "type": "uint256"
        }
      ],
      "stateMutability": "view",
      "type": "function"
    },
    {
      "inputs": [],
      "name": "PRICE_FRAME",
      "outputs": [
        {
          "internalType": "uint256",
          "name": "",
          "type": "uint256"
        }
      ],
      "stateMutability": "view",
      "type": "function"
    },
    {
      "inputs": [
        {
          "internalType": "address",
          "name": "to",
          "type": "address"
        },
        {
          "internalType": "uint256",
          "name": "tokenId",
          "type": "uint256"
        }
      ],
      "name": "approve",
      "outputs": [],
      "stateMutability": "nonpayable",
      "type": "function"
    },
    {
      "inputs": [
        {
          "internalType": "address",
          "name": "owner",
          "type": "address"
        }
      ],
      "name": "balanceOf",
      "outputs": [
        {
          "internalType": "uint256",
          "name": "",
          "type": "uint256"
        }
      ],
      "stateMutability": "view",
      "type": "function"
    },
    {
      "inputs": [
        {
          "internalType": "address",
          "name": "author",
          "type": "address"
        },
        {
          "internalType": "bytes",
          "name": "data",
          "type": "bytes"
        }
      ],
      "name": "createAnimation",
      "outputs": [],
      "stateMutability": "payable",
      "type": "function"
    },
    {
      "inputs": [
        {
          "internalType": "address",
          "name": "author",
          "type": "address"
        },
        {
          "internalType": "bytes",
          "name": "data",
          "type": "bytes"
        }
      ],
      "name": "createFrame",
      "outputs": [
        {
          "internalType": "uint256",
          "name": "tokenId",
          "type": "uint256"
        }
      ],
      "stateMutability": "payable",
      "type": "function"
    },
    {
      "inputs": [
        {
          "internalType": "uint256",
          "name": "tokenId",
          "type": "uint256"
        }
      ],
      "name": "getApproved",
      "outputs": [
        {
          "internalType": "address",
          "name": "",
          "type": "address"
        }
      ],
      "stateMutability": "view",
      "type": "function"
    },
    {
      "inputs": [
        {
          "internalType": "address",
          "name": "owner",
          "type": "address"
        },
        {
          "internalType": "address",
          "name": "operator",
          "type": "address"
        }
      ],
      "name": "isApprovedForAll",
      "outputs": [
        {
          "internalType": "bool",
          "name": "",
          "type": "bool"
        }
      ],
      "stateMutability": "view",
      "type": "function"
    },
    {
      "inputs": [],
      "name": "name",
      "outputs": [
        {
          "internalType": "string",
          "name": "",
          "type": "string"
        }
      ],
      "stateMutability": "view",
      "type": "function"
    },
    {
      "inputs": [],
      "name": "owner",
      "outputs": [
        {
          "internalType": "address",
          "name": "",
          "type": "address"
        }
      ],
      "stateMutability": "view",
      "type": "function"
    },
    {
      "inputs": [
        {
          "internalType": "uint256",
          "name": "tokenId",
          "type": "uint256"
        }
      ],
      "name": "ownerOf",
      "outputs": [
        {
          "internalType": "address",
          "name": "",
          "type": "address"
        }
      ],
      "stateMutability": "view",
      "type": "function"
    },
    {
      "inputs": [],
      "name": "pause",
      "outputs": [],
      "stateMutability": "nonpayable",
      "type": "function"
    },
    {
      "inputs": [],
      "name": "paused",
      "outputs": [
        {
          "internalType": "bool",
          "name": "",
          "type": "bool"
        }
      ],
      "stateMutability": "view",
      "type": "function"
    },
    {
      "inputs": [],
      "name": "renounceOwnership",
      "outputs": [],
      "stateMutability": "nonpayable",
      "type": "function"
    },
    {
      "inputs": [
        {
          "internalType": "uint256",
          "name": "tokenId",
          "type": "uint256"
        },
        {
          "internalType": "uint256",
          "name": "salePrice",
          "type": "uint256"
        }
      ],
      "name": "royaltyInfo",
      "outputs": [
        {
          "internalType": "address",
          "name": "author",
          "type": "address"
        },
        {
          "internalType": "uint256",
          "name": "royaltyAmount",
          "type": "uint256"
        }
      ],
      "stateMutability": "view",
      "type": "function"
    },
    {
      "inputs": [
        {
          "internalType": "address",
          "name": "from",
          "type": "address"
        },
        {
          "internalType": "address",
          "name": "to",
          "type": "address"
        },
        {
          "internalType": "uint256",
          "name": "tokenId",
          "type": "uint256"
        }
      ],
      "name": "safeTransferFrom",
      "outputs": [],
      "stateMutability": "nonpayable",
      "type": "function"
    },
    {
      "inputs": [
        {
          "internalType": "address",
          "name": "from",
          "type": "address"
        },
        {
          "internalType": "address",
          "name": "to",
          "type": "address"
        },
        {
          "internalType": "uint256",
          "name": "tokenId",
          "type": "uint256"
        },
        {
          "internalType": "bytes",
          "name": "_data",
          "type": "bytes"
        }
      ],
      "name": "safeTransferFrom",
      "outputs": [],
      "stateMutability": "nonpayable",
      "type": "function"
    },
    {
      "inputs": [
        {
          "internalType": "address",
          "name": "operator",
          "type": "address"
        },
        {
          "internalType": "bool",
          "name": "approved",
          "type": "bool"
        }
      ],
      "name": "setApprovalForAll",
      "outputs": [],
      "stateMutability": "nonpayable",
      "type": "function"
    },
    {
      "inputs": [
        {
          "internalType": "bytes4",
          "name": "interfaceId",
          "type": "bytes4"
        }
      ],
      "name": "supportsInterface",
      "outputs": [
        {
          "internalType": "bool",
          "name": "",
          "type": "bool"
        }
      ],
      "stateMutability": "view",
      "type": "function"
    },
    {
      "inputs": [],
      "name": "symbol",
      "outputs": [
        {
          "internalType": "string",
          "name": "",
          "type": "string"
        }
      ],
      "stateMutability": "view",
      "type": "function"
    },
    {
      "inputs": [
        {
          "internalType": "uint256",
          "name": "index",
          "type": "uint256"
        }
      ],
      "name": "tokenByIndex",
      "outputs": [
        {
          "internalType": "uint256",
          "name": "",
          "type": "uint256"
        }
      ],
      "stateMutability": "view",
      "type": "function"
    },
    {
      "inputs": [
        {
          "internalType": "uint256",
          "name": "tokenId",
          "type": "uint256"
        }
      ],
      "name": "tokenData",
      "outputs": [
        {
          "internalType": "bytes",
          "name": "",
          "type": "bytes"
        }
      ],
      "stateMutability": "view",
      "type": "function"
    },
    {
      "inputs": [
        {
          "internalType": "address",
          "name": "owner",
          "type": "address"
        },
        {
          "internalType": "uint256",
          "name": "index",
          "type": "uint256"
        }
      ],
      "name": "tokenOfOwnerByIndex",
      "outputs": [
        {
          "internalType": "uint256",
          "name": "",
          "type": "uint256"
        }
      ],
      "stateMutability": "view",
      "type": "function"
    },
    {
      "inputs": [
        {
          "internalType": "uint256",
          "name": "tokenId",
          "type": "uint256"
        }
      ],
      "name": "tokenURI",
      "outputs": [
        {
          "internalType": "string",
          "name": "",
          "type": "string"
        }
      ],
      "stateMutability": "view",
      "type": "function"
    },
    {
      "inputs": [],
      "name": "totalSupply",
      "outputs": [
        {
          "internalType": "uint256",
          "name": "",
          "type": "uint256"
        }
      ],
      "stateMutability": "view",
      "type": "function"
    },
    {
      "inputs": [
        {
          "internalType": "address",
          "name": "from",
          "type": "address"
        },
        {
          "internalType": "address",
          "name": "to",
          "type": "address"
        },
        {
          "internalType": "uint256",
          "name": "tokenId",
          "type": "uint256"
        }
      ],
      "name": "transferFrom",
      "outputs": [],
      "stateMutability": "nonpayable",
      "type": "function"
    },
    {
      "inputs": [
        {
          "internalType": "address",
          "name": "newOwner",
          "type": "address"
        }
      ],
      "name": "transferOwnership",
      "outputs": [],
      "stateMutability": "nonpayable",
      "type": "function"
    },
    {
      "inputs": [],
      "name": "unpause",
      "outputs": [],
      "stateMutability": "nonpayable",
      "type": "function"
    },
    {
      "inputs": [],
      "name": "withdraw",
      "outputs": [],
      "stateMutability": "nonpayable",
      "type": "function"
    }
  ],
  "bytecode": "0x60806040523480156200001157600080fd5b506040518060400160405280600581526020017f45746847410000000000000000000000000000000000000000000000000000008152506040518060400160405280600381526020017f4547410000000000000000000000000000000000000000000000000000000000815250816000908051906020019062000096929190620001c1565b508060019080519060200190620000af929190620001c1565b5050506000600a60006101000a81548160ff021916908315150217905550620000ed620000e1620000f360201b60201c565b620000fb60201b60201c565b620002d6565b600033905090565b6000600a60019054906101000a900473ffffffffffffffffffffffffffffffffffffffff16905081600a60016101000a81548173ffffffffffffffffffffffffffffffffffffffff021916908373ffffffffffffffffffffffffffffffffffffffff1602179055508173ffffffffffffffffffffffffffffffffffffffff168173ffffffffffffffffffffffffffffffffffffffff167f8be0079c531659141344cd1fd0a4f28419497f9722a3daafe3b4186f6b6457e060405160405180910390a35050565b828054620001cf9062000271565b90600052602060002090601f016020900481019282620001f357600085556200023f565b82601f106200020e57805160ff19168380011785556200023f565b828001600101855582156200023f579182015b828111156200023e57825182559160200191906001019062000221565b5b5090506200024e919062000252565b5090565b5b808211156200026d57600081600090555060010162000253565b5090565b600060028204905060018216806200028a57607f821691505b60208210811415620002a157620002a0620002a7565b5b50919050565b7f4e487b7100000000000000000000000000000000000000000000000000000000600052602260045260246000fd5b6148fb80620002e66000396000f3fe6080604052600436106101c25760003560e01c80636352211e116100f7578063a22cb46511610095578063e985e9c511610064578063e985e9c514610634578063ee8c09d614610671578063f2fde38b1461069c578063f998826c146106c5576101c2565b8063a22cb46514610568578063b4b5b48f14610591578063b88d4fde146105ce578063c87b56dd146105f7576101c2565b80638456cb59116100d15780638456cb59146104d05780638da5cb5b146104e757806395d89b41146105125780639e1ac4601461053d576101c2565b80636352211e1461043f57806370a082311461047c578063715018a6146104b9576101c2565b80632f745c591161016457806342842e0e1161013e57806342842e0e146103925780634835de84146103bb5780634f6ccce7146103d75780635c975abb14610414576101c2565b80632f745c59146103275780633ccfd60b146103645780633f4ba83a1461037b576101c2565b8063095ea7b3116101a0578063095ea7b31461026c57806318160ddd1461029557806323b872dd146102c05780632a55205a146102e9576101c2565b806301ffc9a7146101c757806306fdde0314610204578063081812fc1461022f575b600080fd5b3480156101d357600080fd5b506101ee60048036038101906101e99190613351565b6106f5565b6040516101fb91906139b3565b60405180910390f35b34801561021057600080fd5b5061021961076f565b60405161022691906139f0565b60405180910390f35b34801561023b57600080fd5b50610256600480360381019061025191906133a3565b610801565b6040516102639190613923565b60405180910390f35b34801561027857600080fd5b50610293600480360381019061028e9190613315565b610886565b005b3480156102a157600080fd5b506102aa61099e565b6040516102b79190613d72565b60405180910390f35b3480156102cc57600080fd5b506102e760048036038101906102e291906131b7565b6109ab565b005b3480156102f557600080fd5b50610310600480360381019061030b91906133cc565b610a0b565b60405161031e92919061398a565b60405180910390f35b34801561033357600080fd5b5061034e60048036038101906103499190613315565b610aae565b60405161035b9190613d72565b60405180910390f35b34801561037057600080fd5b50610379610b53565b005b34801561038757600080fd5b50610390610c95565b005b34801561039e57600080fd5b506103b960048036038101906103b491906131b7565b610d1b565b005b6103d560048036038101906103d091906132bd565b610d3b565b005b3480156103e357600080fd5b506103fe60048036038101906103f991906133a3565b610fa2565b60405161040b9190613d72565b60405180910390f35b34801561042057600080fd5b50610429611039565b60405161043691906139b3565b60405180910390f35b34801561044b57600080fd5b50610466600480360381019061046191906133a3565b611050565b6040516104739190613923565b60405180910390f35b34801561048857600080fd5b506104a3600480360381019061049e9190613152565b611102565b6040516104b09190613d72565b60405180910390f35b3480156104c557600080fd5b506104ce6111ba565b005b3480156104dc57600080fd5b506104e5611242565b005b3480156104f357600080fd5b506104fc6112c8565b6040516105099190613923565b60405180910390f35b34801561051e57600080fd5b506105276112f2565b60405161053491906139f0565b60405180910390f35b34801561054957600080fd5b50610552611384565b60405161055f9190613d72565b60405180910390f35b34801561057457600080fd5b5061058f600480360381019061058a9190613281565b61138f565b005b34801561059d57600080fd5b506105b860048036038101906105b391906133a3565b6113a5565b6040516105c591906139ce565b60405180910390f35b3480156105da57600080fd5b506105f560048036038101906105f09190613206565b611495565b005b34801561060357600080fd5b5061061e600480360381019061061991906133a3565b6114f7565b60405161062b91906139f0565b60405180910390f35b34801561064057600080fd5b5061065b6004803603810190610656919061317b565b61159e565b60405161066891906139b3565b60405180910390f35b34801561067d57600080fd5b50610686611632565b6040516106939190613d72565b60405180910390f35b3480156106a857600080fd5b506106c360048036038101906106be9190613152565b61163d565b005b6106df60048036038101906106da91906132bd565b611735565b6040516106ec9190613d72565b60405180910390f35b60007f2a55205a000000000000000000000000000000000000000000000000000000007bffffffffffffffffffffffffffffffffffffffffffffffffffffffff1916827bffffffffffffffffffffffffffffffffffffffffffffffffffffffff19161480610768575061076782611864565b5b9050919050565b60606000805461077e9061402f565b80601f01602080910402602001604051908101604052809291908181526020018280546107aa9061402f565b80156107f75780601f106107cc576101008083540402835291602001916107f7565b820191906000526020600020905b8154815290600101906020018083116107da57829003601f168201915b5050505050905090565b600061080c826118de565b61084b576040517f08c379a000000000000000000000000000000000000000000000000000000000815260040161084290613c52565b60405180910390fd5b6004600083815260200190815260200160002060009054906101000a900473ffffffffffffffffffffffffffffffffffffffff169050919050565b600061089182611050565b90508073ffffffffffffffffffffffffffffffffffffffff168373ffffffffffffffffffffffffffffffffffffffff161415610902576040517f08c379a00000000000000000000000000000000000000000000000000000000081526004016108f990613d12565b60405180910390fd5b8073ffffffffffffffffffffffffffffffffffffffff1661092161194a565b73ffffffffffffffffffffffffffffffffffffffff161480610950575061094f8161094a61194a565b61159e565b5b61098f576040517f08c379a000000000000000000000000000000000000000000000000000000000815260040161098690613b92565b60405180910390fd5b6109998383611952565b505050565b6000600880549050905090565b6109bc6109b661194a565b82611a0b565b6109fb576040517f08c379a00000000000000000000000000000000000000000000000000000000081526004016109f290613d32565b60405180910390fd5b610a06838383611ae9565b505050565b600080610a17846118de565b610a56576040517f08c379a0000000000000000000000000000000000000000000000000000000008152600401610a4d90613c32565b60405180910390fd5b600c600085815260200190815260200160002060009054906101000a900473ffffffffffffffffffffffffffffffffffffffff1691506064600484610a9b9190613eeb565b610aa59190613eba565b90509250929050565b6000610ab983611102565b8210610afa576040517f08c379a0000000000000000000000000000000000000000000000000000000008152600401610af190613a32565b60405180910390fd5b600660008473ffffffffffffffffffffffffffffffffffffffff1673ffffffffffffffffffffffffffffffffffffffff168152602001908152602001600020600083815260200190815260200160002054905092915050565b610b5b61194a565b73ffffffffffffffffffffffffffffffffffffffff16610b796112c8565b73ffffffffffffffffffffffffffffffffffffffff1614610bcf576040517f08c379a0000000000000000000000000000000000000000000000000000000008152600401610bc690613c92565b60405180910390fd5b60004790506000811115610c92576000610be76112c8565b73ffffffffffffffffffffffffffffffffffffffff1647604051610c0a9061390e565b60006040518083038185875af1925050503d8060008114610c47576040519150601f19603f3d011682016040523d82523d6000602084013e610c4c565b606091505b5050905080610c90576040517f08c379a0000000000000000000000000000000000000000000000000000000008152600401610c8790613b32565b60405180910390fd5b505b50565b610c9d61194a565b73ffffffffffffffffffffffffffffffffffffffff16610cbb6112c8565b73ffffffffffffffffffffffffffffffffffffffff1614610d11576040517f08c379a0000000000000000000000000000000000000000000000000000000008152600401610d0890613c92565b60405180910390fd5b610d19611d45565b565b610d3683838360405180602001604052806000815250611495565b505050565b600082826000818110610d77577f4e487b7100000000000000000000000000000000000000000000000000000000600052603260045260246000fd5b9050013560f81c60f81b60f81c60ff16905060006001600483901c610d9c9190613e64565b90506000610dab858584611de7565b60005b82811015610e56576000608d82610dc59190613eeb565b6002610dd19190613e64565b905036600088888490608d86610de79190613e64565b92610df493929190613e31565b9150915060008282604051610e0a9291906138d1565b604051809103902060001c9050610e20816118de565b610e3f578580610e2f90614092565b965050610e3d8b8484611e49565b505b505050508080610e4e90614092565b915050610dae565b506000662386f26fc1000082610e6c9190613eeb565b662386f26fc10000610e7e9190613e64565b905080341015610ec3576040517f08c379a0000000000000000000000000000000000000000000000000000000008152600401610eba90613ab2565b60405180910390fd5b610ed08787876001611e6b565b5060008134610edf9190613f45565b90506000811115610f985760003373ffffffffffffffffffffffffffffffffffffffff1682604051610f109061390e565b60006040518083038185875af1925050503d8060008114610f4d576040519150601f19603f3d011682016040523d82523d6000602084013e610f52565b606091505b5050905080610f96576040517f08c379a0000000000000000000000000000000000000000000000000000000008152600401610f8d90613bf2565b60405180910390fd5b505b5050505050505050565b6000610fac61099e565b8210610fed576040517f08c379a0000000000000000000000000000000000000000000000000000000008152600401610fe490613d52565b60405180910390fd5b60088281548110611027577f4e487b7100000000000000000000000000000000000000000000000000000000600052603260045260246000fd5b90600052602060002001549050919050565b6000600a60009054906101000a900460ff16905090565b6000806002600084815260200190815260200160002060009054906101000a900473ffffffffffffffffffffffffffffffffffffffff169050600073ffffffffffffffffffffffffffffffffffffffff168173ffffffffffffffffffffffffffffffffffffffff1614156110f9576040517f08c379a00000000000000000000000000000000000000000000000000000000081526004016110f090613bd2565b60405180910390fd5b80915050919050565b60008073ffffffffffffffffffffffffffffffffffffffff168273ffffffffffffffffffffffffffffffffffffffff161415611173576040517f08c379a000000000000000000000000000000000000000000000000000000000815260040161116a90613bb2565b60405180910390fd5b600360008373ffffffffffffffffffffffffffffffffffffffff1673ffffffffffffffffffffffffffffffffffffffff168152602001908152602001600020549050919050565b6111c261194a565b73ffffffffffffffffffffffffffffffffffffffff166111e06112c8565b73ffffffffffffffffffffffffffffffffffffffff1614611236576040517f08c379a000000000000000000000000000000000000000000000000000000000815260040161122d90613c92565b60405180910390fd5b6112406000612008565b565b61124a61194a565b73ffffffffffffffffffffffffffffffffffffffff166112686112c8565b73ffffffffffffffffffffffffffffffffffffffff16146112be576040517f08c379a00000000000000000000000000000000000000000000000000000000081526004016112b590613c92565b60405180910390fd5b6112c66120ce565b565b6000600a60019054906101000a900473ffffffffffffffffffffffffffffffffffffffff16905090565b6060600180546113019061402f565b80601f016020809104026020016040519081016040528092919081815260200182805461132d9061402f565b801561137a5780601f1061134f5761010080835404028352916020019161137a565b820191906000526020600020905b81548152906001019060200180831161135d57829003601f168201915b5050505050905090565b662386f26fc1000081565b6113a161139a61194a565b8383612171565b5050565b60606113b0826118de565b6113ef576040517f08c379a00000000000000000000000000000000000000000000000000000000081526004016113e690613cf2565b60405180910390fd5b600b600083815260200190815260200160002060010180546114109061402f565b80601f016020809104026020016040519081016040528092919081815260200182805461143c9061402f565b80156114895780601f1061145e57610100808354040283529160200191611489565b820191906000526020600020905b81548152906001019060200180831161146c57829003601f168201915b50505050509050919050565b6114a66114a061194a565b83611a0b565b6114e5576040517f08c379a00000000000000000000000000000000000000000000000000000000081526004016114dc90613d32565b60405180910390fd5b6114f1848484846122de565b50505050565b6060611502826118de565b611541576040517f08c379a000000000000000000000000000000000000000000000000000000000815260040161153890613cd2565b60405180910390fd5b600061154b61233a565b9050600081511161156b5760405180602001604052806000815250611596565b8061157584612377565b6040516020016115869291906138ea565b6040516020818303038152906040525b915050919050565b6000600560008473ffffffffffffffffffffffffffffffffffffffff1673ffffffffffffffffffffffffffffffffffffffff16815260200190815260200160002060008373ffffffffffffffffffffffffffffffffffffffff1673ffffffffffffffffffffffffffffffffffffffff16815260200190815260200160002060009054906101000a900460ff16905092915050565b662386f26fc1000081565b61164561194a565b73ffffffffffffffffffffffffffffffffffffffff166116636112c8565b73ffffffffffffffffffffffffffffffffffffffff16146116b9576040517f08c379a00000000000000000000000000000000000000000000000000000000081526004016116b090613c92565b60405180910390fd5b600073ffffffffffffffffffffffffffffffffffffffff168173ffffffffffffffffffffffffffffffffffffffff161415611729576040517f08c379a000000000000000000000000000000000000000000000000000000000815260040161172090613a72565b60405180910390fd5b61173281612008565b50565b6000662386f26fc10000341015611781576040517f08c379a000000000000000000000000000000000000000000000000000000000815260040161177890613ab2565b60405180910390fd5b61178c848484611e49565b90506000662386f26fc10000346117a39190613f45565b9050600081111561185c5760003373ffffffffffffffffffffffffffffffffffffffff16826040516117d49061390e565b60006040518083038185875af1925050503d8060008114611811576040519150601f19603f3d011682016040523d82523d6000602084013e611816565b606091505b505090508061185a576040517f08c379a000000000000000000000000000000000000000000000000000000000815260040161185190613bf2565b60405180910390fd5b505b509392505050565b60007f780e9d63000000000000000000000000000000000000000000000000000000007bffffffffffffffffffffffffffffffffffffffffffffffffffffffff1916827bffffffffffffffffffffffffffffffffffffffffffffffffffffffff191614806118d757506118d682612524565b5b9050919050565b60008073ffffffffffffffffffffffffffffffffffffffff166002600084815260200190815260200160002060009054906101000a900473ffffffffffffffffffffffffffffffffffffffff1673ffffffffffffffffffffffffffffffffffffffff1614159050919050565b600033905090565b816004600083815260200190815260200160002060006101000a81548173ffffffffffffffffffffffffffffffffffffffff021916908373ffffffffffffffffffffffffffffffffffffffff160217905550808273ffffffffffffffffffffffffffffffffffffffff166119c583611050565b73ffffffffffffffffffffffffffffffffffffffff167f8c5be1e5ebec7d5bd14f71427d1e84f3dd0314c0f7b2291e5b200ac8c7c3b92560405160405180910390a45050565b6000611a16826118de565b611a55576040517f08c379a0000000000000000000000000000000000000000000000000000000008152600401611a4c90613b12565b60405180910390fd5b6000611a6083611050565b90508073ffffffffffffffffffffffffffffffffffffffff168473ffffffffffffffffffffffffffffffffffffffff161480611acf57508373ffffffffffffffffffffffffffffffffffffffff16611ab784610801565b73ffffffffffffffffffffffffffffffffffffffff16145b80611ae05750611adf818561159e565b5b91505092915050565b8273ffffffffffffffffffffffffffffffffffffffff16611b0982611050565b73ffffffffffffffffffffffffffffffffffffffff1614611b5f576040517f08c379a0000000000000000000000000000000000000000000000000000000008152600401611b5690613cb2565b60405180910390fd5b600073ffffffffffffffffffffffffffffffffffffffff168273ffffffffffffffffffffffffffffffffffffffff161415611bcf576040517f08c379a0000000000000000000000000000000000000000000000000000000008152600401611bc690613ad2565b60405180910390fd5b611bda838383612606565b611be5600082611952565b6001600360008573ffffffffffffffffffffffffffffffffffffffff1673ffffffffffffffffffffffffffffffffffffffff1681526020019081526020016000206000828254611c359190613f45565b925050819055506001600360008473ffffffffffffffffffffffffffffffffffffffff1673ffffffffffffffffffffffffffffffffffffffff1681526020019081526020016000206000828254611c8c9190613e64565b92505081905550816002600083815260200190815260200160002060006101000a81548173ffffffffffffffffffffffffffffffffffffffff021916908373ffffffffffffffffffffffffffffffffffffffff160217905550808273ffffffffffffffffffffffffffffffffffffffff168473ffffffffffffffffffffffffffffffffffffffff167fddf252ad1be2c89b69c2b068fc378daa952ba7f163c4a11628f55a4df523b3ef60405160405180910390a4505050565b611d4d611039565b611d8c576040517f08c379a0000000000000000000000000000000000000000000000000000000008152600401611d8390613a12565b60405180910390fd5b6000600a60006101000a81548160ff0219169083151502179055507f5db9ee0a495bf2e6ff9c91a7834c1ba4fdd244a5e8aa4e537bd38aeae4b073aa611dd061194a565b604051611ddd9190613923565b60405180910390a1565b80608d611df49190613eeb565b6002611e009190613e64565b8383905014611e44576040517f08c379a0000000000000000000000000000000000000000000000000000000008152600401611e3b90613b52565b60405180910390fd5b505050565b6000611e55838361265e565b611e628484846000611e6b565b90509392505050565b60008383604051611e7d9291906138d1565b604051809103902060001c9050611e9485826126a8565b6040518060400160405280836001811115611ed8577f4e487b7100000000000000000000000000000000000000000000000000000000600052602160045260246000fd5b815260200185858080601f016020809104026020016040519081016040528093929190818152602001838380828437600081840152601f19601f82011690508083019250505050505050815250600b600083815260200190815260200160002060008201518160000160006101000a81548160ff02191690836001811115611f89577f4e487b7100000000000000000000000000000000000000000000000000000000600052602160045260246000fd5b02179055506020820151816001019080519060200190611faa929190612f94565b5090505084600c600083815260200190815260200160002060006101000a81548173ffffffffffffffffffffffffffffffffffffffff021916908373ffffffffffffffffffffffffffffffffffffffff160217905550949350505050565b6000600a60019054906101000a900473ffffffffffffffffffffffffffffffffffffffff16905081600a60016101000a81548173ffffffffffffffffffffffffffffffffffffffff021916908373ffffffffffffffffffffffffffffffffffffffff1602179055508173ffffffffffffffffffffffffffffffffffffffff168173ffffffffffffffffffffffffffffffffffffffff167f8be0079c531659141344cd1fd0a4f28419497f9722a3daafe3b4186f6b6457e060405160405180910390a35050565b6120d6611039565b15612116576040517f08c379a000000000000000000000000000000000000000000000000000000000815260040161210d90613b72565b60405180910390fd5b6001600a60006101000a81548160ff0219169083151502179055507f62e78cea01bee320cd4e420270b5ea74000d11b0c9f74754ebdbfc544b05a25861215a61194a565b6040516121679190613923565b60405180910390a1565b8173ffffffffffffffffffffffffffffffffffffffff168373ffffffffffffffffffffffffffffffffffffffff1614156121e0576040517f08c379a00000000000000000000000000000000000000000000000000000000081526004016121d790613af2565b60405180910390fd5b80600560008573ffffffffffffffffffffffffffffffffffffffff1673ffffffffffffffffffffffffffffffffffffffff16815260200190815260200160002060008473ffffffffffffffffffffffffffffffffffffffff1673ffffffffffffffffffffffffffffffffffffffff16815260200190815260200160002060006101000a81548160ff0219169083151502179055508173ffffffffffffffffffffffffffffffffffffffff168373ffffffffffffffffffffffffffffffffffffffff167f17307eab39ab6107e8899845ad3d59bd9653f200f220920489ca2b5937696c31836040516122d191906139b3565b60405180910390a3505050565b6122e9848484611ae9565b6122f5848484846126c6565b612334576040517f08c379a000000000000000000000000000000000000000000000000000000000815260040161232b90613a52565b60405180910390fd5b50505050565b60606040518060400160405280601481526020017f68747470733a2f2f65746867612e78797a2f742f000000000000000000000000815250905090565b606060008214156123bf576040518060400160405280600181526020017f3000000000000000000000000000000000000000000000000000000000000000815250905061251f565b600082905060005b600082146123f15780806123da90614092565b915050600a826123ea9190613eba565b91506123c7565b60008167ffffffffffffffff811115612433577f4e487b7100000000000000000000000000000000000000000000000000000000600052604160045260246000fd5b6040519080825280601f01601f1916602001820160405280156124655781602001600182028036833780820191505090505b5090505b600085146125185760018261247e9190613f45565b9150600a8561248d91906140db565b60306124999190613e64565b60f81b8183815181106124d5577f4e487b7100000000000000000000000000000000000000000000000000000000600052603260045260246000fd5b60200101907effffffffffffffffffffffffffffffffffffffffffffffffffffffffffffff1916908160001a905350600a856125119190613eba565b9450612469565b8093505050505b919050565b60007f80ac58cd000000000000000000000000000000000000000000000000000000007bffffffffffffffffffffffffffffffffffffffffffffffffffffffff1916827bffffffffffffffffffffffffffffffffffffffffffffffffffffffff191614806125ef57507f5b5e139f000000000000000000000000000000000000000000000000000000007bffffffffffffffffffffffffffffffffffffffffffffffffffffffff1916827bffffffffffffffffffffffffffffffffffffffffffffffffffffffff1916145b806125ff57506125fe8261285d565b5b9050919050565b61260e611039565b1561264e576040517f08c379a000000000000000000000000000000000000000000000000000000000815260040161264590613b72565b60405180910390fd5b6126598383836128c7565b505050565b608d82829050146126a4576040517f08c379a000000000000000000000000000000000000000000000000000000000815260040161269b90613c72565b60405180910390fd5b5050565b6126c28282604051806020016040528060008152506129db565b5050565b60006126e78473ffffffffffffffffffffffffffffffffffffffff16612a36565b15612850578373ffffffffffffffffffffffffffffffffffffffff1663150b7a0261271061194a565b8786866040518563ffffffff1660e01b8152600401612732949392919061393e565b602060405180830381600087803b15801561274c57600080fd5b505af192505050801561277d57506040513d601f19601f8201168201806040525081019061277a919061337a565b60015b612800573d80600081146127ad576040519150601f19603f3d011682016040523d82523d6000602084013e6127b2565b606091505b506000815114156127f8576040517f08c379a00000000000000000000000000000000000000000000000000000000081526004016127ef90613a52565b60405180910390fd5b805181602001fd5b63150b7a0260e01b7bffffffffffffffffffffffffffffffffffffffffffffffffffffffff1916817bffffffffffffffffffffffffffffffffffffffffffffffffffffffff191614915050612855565b600190505b949350505050565b60007f01ffc9a7000000000000000000000000000000000000000000000000000000007bffffffffffffffffffffffffffffffffffffffffffffffffffffffff1916827bffffffffffffffffffffffffffffffffffffffffffffffffffffffff1916149050919050565b6128d2838383612a49565b600073ffffffffffffffffffffffffffffffffffffffff168373ffffffffffffffffffffffffffffffffffffffff1614156129155761291081612a4e565b612954565b8173ffffffffffffffffffffffffffffffffffffffff168373ffffffffffffffffffffffffffffffffffffffff1614612953576129528382612a97565b5b5b600073ffffffffffffffffffffffffffffffffffffffff168273ffffffffffffffffffffffffffffffffffffffff1614156129975761299281612c04565b6129d6565b8273ffffffffffffffffffffffffffffffffffffffff168273ffffffffffffffffffffffffffffffffffffffff16146129d5576129d48282612d47565b5b5b505050565b6129e58383612dc6565b6129f260008484846126c6565b612a31576040517f08c379a0000000000000000000000000000000000000000000000000000000008152600401612a2890613a52565b60405180910390fd5b505050565b600080823b905060008111915050919050565b505050565b6008805490506009600083815260200190815260200160002081905550600881908060018154018082558091505060019003906000526020600020016000909190919091505550565b60006001612aa484611102565b612aae9190613f45565b9050600060076000848152602001908152602001600020549050818114612b93576000600660008673ffffffffffffffffffffffffffffffffffffffff1673ffffffffffffffffffffffffffffffffffffffff168152602001908152602001600020600084815260200190815260200160002054905080600660008773ffffffffffffffffffffffffffffffffffffffff1673ffffffffffffffffffffffffffffffffffffffff168152602001908152602001600020600084815260200190815260200160002081905550816007600083815260200190815260200160002081905550505b6007600084815260200190815260200160002060009055600660008573ffffffffffffffffffffffffffffffffffffffff1673ffffffffffffffffffffffffffffffffffffffff16815260200190815260200160002060008381526020019081526020016000206000905550505050565b60006001600880549050612c189190613f45565b9050600060096000848152602001908152602001600020549050600060088381548110612c6e577f4e487b7100000000000000000000000000000000000000000000000000000000600052603260045260246000fd5b906000526020600020015490508060088381548110612cb6577f4e487b7100000000000000000000000000000000000000000000000000000000600052603260045260246000fd5b906000526020600020018190555081600960008381526020019081526020016000208190555060096000858152602001908152602001600020600090556008805480612d2b577f4e487b7100000000000000000000000000000000000000000000000000000000600052603160045260246000fd5b6001900381819060005260206000200160009055905550505050565b6000612d5283611102565b905081600660008573ffffffffffffffffffffffffffffffffffffffff1673ffffffffffffffffffffffffffffffffffffffff168152602001908152602001600020600083815260200190815260200160002081905550806007600084815260200190815260200160002081905550505050565b600073ffffffffffffffffffffffffffffffffffffffff168273ffffffffffffffffffffffffffffffffffffffff161415612e36576040517f08c379a0000000000000000000000000000000000000000000000000000000008152600401612e2d90613c12565b60405180910390fd5b612e3f816118de565b15612e7f576040517f08c379a0000000000000000000000000000000000000000000000000000000008152600401612e7690613a92565b60405180910390fd5b612e8b60008383612606565b6001600360008473ffffffffffffffffffffffffffffffffffffffff1673ffffffffffffffffffffffffffffffffffffffff1681526020019081526020016000206000828254612edb9190613e64565b92505081905550816002600083815260200190815260200160002060006101000a81548173ffffffffffffffffffffffffffffffffffffffff021916908373ffffffffffffffffffffffffffffffffffffffff160217905550808273ffffffffffffffffffffffffffffffffffffffff16600073ffffffffffffffffffffffffffffffffffffffff167fddf252ad1be2c89b69c2b068fc378daa952ba7f163c4a11628f55a4df523b3ef60405160405180910390a45050565b828054612fa09061402f565b90600052602060002090601f016020900481019282612fc25760008555613009565b82601f10612fdb57805160ff1916838001178555613009565b82800160010185558215613009579182015b82811115613008578251825591602001919060010190612fed565b5b509050613016919061301a565b5090565b5b8082111561303357600081600090555060010161301b565b5090565b600061304a61304584613db2565b613d8d565b90508281526020810184848401111561306257600080fd5b61306d848285613fed565b509392505050565b60008135905061308481614869565b92915050565b60008135905061309981614880565b92915050565b6000813590506130ae81614897565b92915050565b6000815190506130c381614897565b92915050565b60008083601f8401126130db57600080fd5b8235905067ffffffffffffffff8111156130f457600080fd5b60208301915083600182028301111561310c57600080fd5b9250929050565b600082601f83011261312457600080fd5b8135613134848260208601613037565b91505092915050565b60008135905061314c816148ae565b92915050565b60006020828403121561316457600080fd5b600061317284828501613075565b91505092915050565b6000806040838503121561318e57600080fd5b600061319c85828601613075565b92505060206131ad85828601613075565b9150509250929050565b6000806000606084860312156131cc57600080fd5b60006131da86828701613075565b93505060206131eb86828701613075565b92505060406131fc8682870161313d565b9150509250925092565b6000806000806080858703121561321c57600080fd5b600061322a87828801613075565b945050602061323b87828801613075565b935050604061324c8782880161313d565b925050606085013567ffffffffffffffff81111561326957600080fd5b61327587828801613113565b91505092959194509250565b6000806040838503121561329457600080fd5b60006132a285828601613075565b92505060206132b38582860161308a565b9150509250929050565b6000806000604084860312156132d257600080fd5b60006132e086828701613075565b935050602084013567ffffffffffffffff8111156132fd57600080fd5b613309868287016130c9565b92509250509250925092565b6000806040838503121561332857600080fd5b600061333685828601613075565b92505060206133478582860161313d565b9150509250929050565b60006020828403121561336357600080fd5b60006133718482850161309f565b91505092915050565b60006020828403121561338c57600080fd5b600061339a848285016130b4565b91505092915050565b6000602082840312156133b557600080fd5b60006133c38482850161313d565b91505092915050565b600080604083850312156133df57600080fd5b60006133ed8582860161313d565b92505060206133fe8582860161313d565b9150509250929050565b61341181613f79565b82525050565b61342081613f8b565b82525050565b60006134328385613e0a565b935061343f838584613fed565b82840190509392505050565b600061345682613de3565b6134608185613df9565b9350613470818560208601613ffc565b613479816141c8565b840191505092915050565b600061348f82613dee565b6134998185613e15565b93506134a9818560208601613ffc565b6134b2816141c8565b840191505092915050565b60006134c882613dee565b6134d28185613e26565b93506134e2818560208601613ffc565b80840191505092915050565b60006134fb601483613e15565b9150613506826141d9565b602082019050919050565b600061351e602b83613e15565b915061352982614202565b604082019050919050565b6000613541603283613e15565b915061354c82614251565b604082019050919050565b6000613564602683613e15565b915061356f826142a0565b604082019050919050565b6000613587601c83613e15565b9150613592826142ef565b602082019050919050565b60006135aa600e83613e15565b91506135b582614318565b602082019050919050565b60006135cd602483613e15565b91506135d882614341565b604082019050919050565b60006135f0601983613e15565b91506135fb82614390565b602082019050919050565b6000613613602c83613e15565b915061361e826143b9565b604082019050919050565b6000613636601383613e15565b915061364182614408565b602082019050919050565b6000613659601783613e15565b915061366482614431565b602082019050919050565b600061367c601083613e15565b91506136878261445a565b602082019050919050565b600061369f603883613e15565b91506136aa82614483565b604082019050919050565b60006136c2602a83613e15565b91506136cd826144d2565b604082019050919050565b60006136e5602983613e15565b91506136f082614521565b604082019050919050565b6000613708601a83613e15565b915061371382614570565b602082019050919050565b600061372b602083613e15565b915061373682614599565b602082019050919050565b600061374e602283613e15565b9150613759826145c2565b604082019050919050565b6000613771602c83613e15565b915061377c82614611565b604082019050919050565b6000613794601283613e15565b915061379f82614660565b602082019050919050565b60006137b7602083613e15565b91506137c282614689565b602082019050919050565b60006137da602983613e15565b91506137e5826146b2565b604082019050919050565b60006137fd602f83613e15565b915061380882614701565b604082019050919050565b6000613820602083613e15565b915061382b82614750565b602082019050919050565b6000613843602183613e15565b915061384e82614779565b604082019050919050565b6000613866600083613e0a565b9150613871826147c8565b600082019050919050565b6000613889603183613e15565b9150613894826147cb565b604082019050919050565b60006138ac602c83613e15565b91506138b78261481a565b604082019050919050565b6138cb81613fe3565b82525050565b60006138de828486613426565b91508190509392505050565b60006138f682856134bd565b915061390282846134bd565b91508190509392505050565b600061391982613859565b9150819050919050565b60006020820190506139386000830184613408565b92915050565b60006080820190506139536000830187613408565b6139606020830186613408565b61396d60408301856138c2565b818103606083015261397f818461344b565b905095945050505050565b600060408201905061399f6000830185613408565b6139ac60208301846138c2565b9392505050565b60006020820190506139c86000830184613417565b92915050565b600060208201905081810360008301526139e8818461344b565b905092915050565b60006020820190508181036000830152613a0a8184613484565b905092915050565b60006020820190508181036000830152613a2b816134ee565b9050919050565b60006020820190508181036000830152613a4b81613511565b9050919050565b60006020820190508181036000830152613a6b81613534565b9050919050565b60006020820190508181036000830152613a8b81613557565b9050919050565b60006020820190508181036000830152613aab8161357a565b9050919050565b60006020820190508181036000830152613acb8161359d565b9050919050565b60006020820190508181036000830152613aeb816135c0565b9050919050565b60006020820190508181036000830152613b0b816135e3565b9050919050565b60006020820190508181036000830152613b2b81613606565b9050919050565b60006020820190508181036000830152613b4b81613629565b9050919050565b60006020820190508181036000830152613b6b8161364c565b9050919050565b60006020820190508181036000830152613b8b8161366f565b9050919050565b60006020820190508181036000830152613bab81613692565b9050919050565b60006020820190508181036000830152613bcb816136b5565b9050919050565b60006020820190508181036000830152613beb816136d8565b9050919050565b60006020820190508181036000830152613c0b816136fb565b9050919050565b60006020820190508181036000830152613c2b8161371e565b9050919050565b60006020820190508181036000830152613c4b81613741565b9050919050565b60006020820190508181036000830152613c6b81613764565b9050919050565b60006020820190508181036000830152613c8b81613787565b9050919050565b60006020820190508181036000830152613cab816137aa565b9050919050565b60006020820190508181036000830152613ccb816137cd565b9050919050565b60006020820190508181036000830152613ceb816137f0565b9050919050565b60006020820190508181036000830152613d0b81613813565b9050919050565b60006020820190508181036000830152613d2b81613836565b9050919050565b60006020820190508181036000830152613d4b8161387c565b9050919050565b60006020820190508181036000830152613d6b8161389f565b9050919050565b6000602082019050613d8760008301846138c2565b92915050565b6000613d97613da8565b9050613da38282614061565b919050565b6000604051905090565b600067ffffffffffffffff821115613dcd57613dcc614199565b5b613dd6826141c8565b9050602081019050919050565b600081519050919050565b600081519050919050565b600082825260208201905092915050565b600081905092915050565b600082825260208201905092915050565b600081905092915050565b60008085851115613e4157600080fd5b83861115613e4e57600080fd5b6001850283019150848603905094509492505050565b6000613e6f82613fe3565b9150613e7a83613fe3565b9250827fffffffffffffffffffffffffffffffffffffffffffffffffffffffffffffffff03821115613eaf57613eae61410c565b5b828201905092915050565b6000613ec582613fe3565b9150613ed083613fe3565b925082613ee057613edf61413b565b5b828204905092915050565b6000613ef682613fe3565b9150613f0183613fe3565b9250817fffffffffffffffffffffffffffffffffffffffffffffffffffffffffffffffff0483118215151615613f3a57613f3961410c565b5b828202905092915050565b6000613f5082613fe3565b9150613f5b83613fe3565b925082821015613f6e57613f6d61410c565b5b828203905092915050565b6000613f8482613fc3565b9050919050565b60008115159050919050565b60007fffffffff0000000000000000000000000000000000000000000000000000000082169050919050565b600073ffffffffffffffffffffffffffffffffffffffff82169050919050565b6000819050919050565b82818337600083830152505050565b60005b8381101561401a578082015181840152602081019050613fff565b83811115614029576000848401525b50505050565b6000600282049050600182168061404757607f821691505b6020821081141561405b5761405a61416a565b5b50919050565b61406a826141c8565b810181811067ffffffffffffffff8211171561408957614088614199565b5b80604052505050565b600061409d82613fe3565b91507fffffffffffffffffffffffffffffffffffffffffffffffffffffffffffffffff8214156140d0576140cf61410c565b5b600182019050919050565b60006140e682613fe3565b91506140f183613fe3565b9250826141015761410061413b565b5b828206905092915050565b7f4e487b7100000000000000000000000000000000000000000000000000000000600052601160045260246000fd5b7f4e487b7100000000000000000000000000000000000000000000000000000000600052601260045260246000fd5b7f4e487b7100000000000000000000000000000000000000000000000000000000600052602260045260246000fd5b7f4e487b7100000000000000000000000000000000000000000000000000000000600052604160045260246000fd5b6000601f19601f8301169050919050565b7f5061757361626c653a206e6f7420706175736564000000000000000000000000600082015250565b7f455243373231456e756d657261626c653a206f776e657220696e646578206f7560008201527f74206f6620626f756e6473000000000000000000000000000000000000000000602082015250565b7f4552433732313a207472616e7366657220746f206e6f6e20455243373231526560008201527f63656976657220696d706c656d656e7465720000000000000000000000000000602082015250565b7f4f776e61626c653a206e6577206f776e657220697320746865207a65726f206160008201527f6464726573730000000000000000000000000000000000000000000000000000602082015250565b7f4552433732313a20746f6b656e20616c7265616479206d696e74656400000000600082015250565b7f496e76616c696420616d6f756e74000000000000000000000000000000000000600082015250565b7f4552433732313a207472616e7366657220746f20746865207a65726f2061646460008201527f7265737300000000000000000000000000000000000000000000000000000000602082015250565b7f4552433732313a20617070726f766520746f2063616c6c657200000000000000600082015250565b7f4552433732313a206f70657261746f7220717565727920666f72206e6f6e657860008201527f697374656e7420746f6b656e0000000000000000000000000000000000000000602082015250565b7f5472616e73616374696f6e206661696c75726500000000000000000000000000600082015250565b7f4672616d657320636f756e7420697320696e76616c6964000000000000000000600082015250565b7f5061757361626c653a2070617573656400000000000000000000000000000000600082015250565b7f4552433732313a20617070726f76652063616c6c6572206973206e6f74206f7760008201527f6e6572206e6f7220617070726f76656420666f7220616c6c0000000000000000602082015250565b7f4552433732313a2062616c616e636520717565727920666f7220746865207a6560008201527f726f206164647265737300000000000000000000000000000000000000000000602082015250565b7f4552433732313a206f776e657220717565727920666f72206e6f6e657869737460008201527f656e7420746f6b656e0000000000000000000000000000000000000000000000602082015250565b7f52657475726e207472616e73616374696f6e206661696c757265000000000000600082015250565b7f4552433732313a206d696e7420746f20746865207a65726f2061646472657373600082015250565b7f526f79616c747920696e666f20666f72206e6f6e6578697374656e7420746f6b60008201527f656e000000000000000000000000000000000000000000000000000000000000602082015250565b7f4552433732313a20617070726f76656420717565727920666f72206e6f6e657860008201527f697374656e7420746f6b656e0000000000000000000000000000000000000000602082015250565b7f44617461206d7573742062652076616c69640000000000000000000000000000600082015250565b7f4f776e61626c653a2063616c6c6572206973206e6f7420746865206f776e6572600082015250565b7f4552433732313a207472616e73666572206f6620746f6b656e2074686174206960008201527f73206e6f74206f776e0000000000000000000000000000000000000000000000602082015250565b7f4552433732314d657461646174613a2055524920717565727920666f72206e6f60008201527f6e6578697374656e7420746f6b656e0000000000000000000000000000000000602082015250565b7f4461746120717565727920666f72206e6f6e6578697374656e7420746f6b656e600082015250565b7f4552433732313a20617070726f76616c20746f2063757272656e74206f776e6560008201527f7200000000000000000000000000000000000000000000000000000000000000602082015250565b50565b7f4552433732313a207472616e736665722063616c6c6572206973206e6f74206f60008201527f776e6572206e6f7220617070726f766564000000000000000000000000000000602082015250565b7f455243373231456e756d657261626c653a20676c6f62616c20696e646578206f60008201527f7574206f6620626f756e64730000000000000000000000000000000000000000602082015250565b61487281613f79565b811461487d57600080fd5b50565b61488981613f8b565b811461489457600080fd5b50565b6148a081613f97565b81146148ab57600080fd5b50565b6148b781613fe3565b81146148c257600080fd5b5056fea264697066735822122039b54bf3daca0f9cf019741499dc3a4e89afe2cfb65fb97c796d624a602100d964736f6c63430008040033",
  "linkReferences": {},
  "deployedLinkReferences": {}
}